:1000000005308A00B62D0000FF00030E8301A10019
:100010000A08A0008A010408A2007708A300780853
:10002000A4007908A5007A08A60003170D08031399
:10003000A60003170F080313A70003170C080313E8
:10004000A80003170E080313A900831383128B1D46
:100050002B280B184C28220884002308F7002408BA
:10006000F8002508F9002608FA00260803178D0075
:100070000313270803178F000313280803178C00A6
:100080000313290803178E00031320088A00210E8A
:100090008300FF0E7F0E09008A110A1281280A10C0
:1000A0008A100A11820728340C34013406341030C7
:1000B000E000F701FA01DD0CDC0C031C65285E088A
:1000C000F7070318FA0A5F08FA07FA0CF70CF90C9D
:1000D000F80CE00B5B2808005D30840083130008F7
:1000E000031980280130F800F701F70B7528F80B89
:1000F00074284A30F700F70B7B287E28800B722883
:1001000008008B11061AB3280730831603178100E5
:1001100083120313061A902832080319B303B2039B
:100120000B3083160317810083120313061A9B28D2
:10013000B20A0319B30A0D30831603178100831224
:100140000313061AA828AD01AC01B40A0319B50AB5
:100150000E3083160317810083120313061AB32887
:10016000AF010E30AE00861AE12807308316031760
:10017000810083120313861AC028AF010330AE003A
:100180000B3083160317810083120313861ACB28C2
:10019000AF010630AE000D308316031781008312C5
:1001A0000313861AD628AF010930AE000E3083162D
:1001B0000317810083120313861AE128AF01183058
:1001C000AE00061B0E290730831603178100831229
:1001D0000313061BEE28AF010830AE000B30831668
:1001E0000317810083120313061BF928AF010530A2
:1001F000AE000D3083160317810083120313061B14
:100200000429AF010230AE000E30831603178100BF
:1002100083120313061B0E29AF01AE01861B3C2976
:10022000073083160317810083120313861B1B29D3
:10023000AF010130AE000B3083160317810083122B
:100240000313861B2629AF010430AE000D30831640
:100250000317810083120313861B3129AF01073076
:10026000AE000E3083160317810083120313861B22
:100270003C29AF010F30AE002C0B4529AD08031D02
:1002800045292F08B1002E08B0002C08023C031DA0
:100290005D29AD08031D5D293108DD003008DC0053
:1002A000DF010A30DE0057202E087807B0007908F9
:1002B000B1002F0803182F0FB1072C08033C031DB2
:1002C0007529AD08031D75293108DD003008DC00F3
:1002D000DF010A30DE0057202E087807B0007908C9
:1002E000B1002F0803182F0FB1072C08043C031D81
:1002F0008D29AD08031D8D293108DD003008DC0093
:10030000DF010A30DE0057202E087807B000790898
:10031000B1002F0803182F0FB1070230DC00FA30AC
:10032000DD006C20DC0B8F29AC0A0319AD0AAD0887
:10033000031D9E292C08043C0318A029AD01AC0123
:10034000F030831603178100831203138B150B10F3
:100350008A110A122B280C10C3274E23C9235529B2
:100360004510D4224D2820000A10D4224D28A02662
:10037000412CA012CC3A00000C10D4224D28452963
:10038000412A55294100570EF039F7000F30070573
:100390007704870000000714CD290710080007081C
:1003A000F700070E0F39F8000800831607108710B2
:1003B0000711831287100F3083160705F038870066
:1003C00083120715000007140000CF217808D7001A
:1003D0000710000007140000CF217808D60007108E
:1003E0000F308316070587008312570EF700F03091
:1003F000F70577085604F8007808D600D61BDB29E5
:10040000541C8710541887140000071100000710AF
:10041000550ED6000F30D6055608D700C321550813
:100420000F39D600D700C32108000F308316070507
:100430008700071087100711831287100711071014
:10044000AB018B1BAB178B130F30DD006C20AB1B8C
:100450008B170130C2004208033C031C3D2A0330C5
:10046000D700C321AB018B1BAB178B130530DD000D
:100470006C20AB1B8B17C20A2B2A0230D700C3217A
:10048000AB018B1BAB178B130530DD006C20AB1B56
:100490008B17C2014208033C031C572A42084F2015
:1004A000C300D4014308D500D521C20A4A2A8A11C3
:1004B0000A12E82D510B5D2A602A4030D200612AD1
:1004C000D20101305002D20752088038D300D40143
:1004D0005308D500D52108004F08073A03197A2A96
:1004E0000B3A03197F2A063A03198D2A023A031997
:1004F000932A982A0130D000D1005A229D2AD40193
:100500000130D500D521AB018B1BAB178B1302300B
:10051000DD006C20AB1B8B179D2A0130D000023010
:10052000D1005A229D2AD4011030D500D5219D2A10
:100530000130D4004F08D500D52108000B08C200B7
:100540008B13831603178C170C1400000000831202
:1005500003138C1B8B1703170C087F390319F22A1E
:100560000313C20003170D080313C30003170F087A
:100570000313C4004208CF006C22430803178D0008
:100580000313440803178F0003130B08C5008B13D4
:10059000831603178C170C1400000000831203133A
:1005A0008C1B8B1703170C0D0E0D7F390319F22AC4
:1005B0000313C20003170D080313C30003170F082A
:1005C0000313C4004208CF006C22430803178D00B8
:1005D0000313440803178F008D0A03198F0A0313AE
:1005E0009E2A0317031308000B08C3008B138316FE
:1005F00003178C170C1400000000831203138C1BCC
:100600008B1703182B2B03170C087F390313C30018
:1006100003170D080313C40003170F080313C500C5
:100620004308CF006C22440803178D0003134508CC
:1006300003178F0003130B08C6008B1383160317D1
:100640008C170C1400000000831203138C1B8B17F3
:10065000C20B2B2B4A2B03170C0D0E0D7F390313E6
:10066000C30003170D080313C40003170F08031377
:10067000C5004308CF006C22440803178D00031304
:10068000450803178F008D0A03198F0A03100313FF
:10069000C20BF42A8A110A12FE2DCA010408C900ED
:1006A0004A10831B4A14430EF038C500C507E23ECA
:1006B000C600323EC80043080F39C607C607C80740
:1006C000E93EC700C707C707420E0F39C707C8076B
:1006D000C70DC80DC809C80D42080F39C807C50D98
:1006E0000730C4000A30C807C703031C732BC707B1
:1006F000C603031C772BC607C503031C7B2BC5074A
:10070000C403031C7F2B4430840083130730490546
:100710004913840748300402031949170008F700F9
:10072000031D9A2B491B9A2B491AAC2BC9199A2BDA
:1007300020309D2BC91549123030F707C30104083A
:10074000C2004310831B43147708CF006C22420879
:100750008400831343188317840A491F8A2B8A1144
:100760000A12052E8E30F7004308F8004208F900FF
:10077000FA01F808031DC62B7908F800F9010830C2
:10078000F702F808031DC62BF701CE2B0310F81B48
:10079000CD2BF90DF80DF703C62BF81308004F0801
:1007A00003193F2CD700530803193F2CD707031810
:1007B000E02B7F30D702031C3F2C03193F2CE42B86
:1007C0008130D70703183F2C5708F700F801F901CB
:1007D000FA015008DB00DB175108DA005208D90093
:1007E0001830D700D801591C0D2C5608FA07031CE5
:1007F000FF2BF90A031DFF2BF80A0319D817550818
:10080000F907031C062CF80A0319D8175408D1005D
:10081000D1175108F8070318D817D80DF80CF90CA0
:10082000FA0CDB0CDA0CD90C0310D70BF22B0130CD
:10083000F70703183F2CF81B242CDB0DFA0DF90DDC
:10084000F80DF70303193F2CDB1F352CFA0A031DA3
:10085000352CF90A031D352CF80A031D352CF80C2C
:10086000F90CFA0CF70A03193F2C5008D800540869
:10087000D806D81F3D2CF817432CF813432CF7014A
:10088000F801F901FA0108008318492C5730840057
:100890008313F701F801F901FA01D701D801D90151
:1008A000DA0156085504540453040319872C2030E8
:1008B000DB000310CF0DD00DD10DD20DD70DD80D0B
:1008C000D90DDA0D56085A02031D702C550859022D
:1008D000031D702C54085802031D702C5308570236
:1008E000031C812C5308D7025408031C540FD80250
:1008F0005508031C550FD9025608031C560FDA027F
:100900000314F70DF80DF90DFA0DDB0B592C5708F0
:100910008000840A58088000840A59088000840AEC
:100920005A08800008000408C7004608C9000319D7
:10093000B22C4508D2004408D1004308D000420838
:10094000CF00D601D5012030D4008230D300CF2390
:100950007A08C5007908C4007808C3007708C20087
:10096000C90B992C4508D2004408D1004308D00097
:100970004208CF004F08B63CCF00FA015008D30020
:10098000D0170310D00CD10CD20CFA0CF90CF80CC7
:10099000F70CCF0BC12CD31FD82CF709F809F90994
:1009A000FA09F70A0319F80A0319F90A0319FA0AE6
:1009B0007A08C5007908C4007808C3007708C20027
:1009C000C51FEF2CC703C716C209C309C409C5094F
:1009D000C20A0319C30A0319C40A0319C50A3B3022
:1009E000CE009A30CD00CA30CC00CB010A30C9000D
:1009F00046080319C70A831442308400831345084C
:100A0000D2004408D1004308D0004208CF004E086D
:100A1000D6004D08D5004C08D4004B08D300442420
:100A20007808F708031D272D460A49020319272DC8
:100A300047080319292D0F3949020319212D0318DD
:100A4000592DC71B592D471B292D2030552D2030DE
:100A5000C705C71E372DC7124608031DC7037708F1
:100A6000C7002D30CF006C224708F700C7014608A9
:100A70004902031D452D7708C7002E30CF006C2298
:100A80004708F7002030C70500303030C71E552D0D
:100A9000C7124608031DC7037708C7002D30CF00D3
:100AA0006C224708F700C7013030F7077708CF00FE
:100AB0006C2283104E08D2004D08D1004C08D000A3
:100AC0004B08CF00D601D501D4010A30D30044240D
:100AD0007A08CE007908CD007808CC007708CB00E2
:100AE000C90BFB2C8A110A127B2E4308CA00470847
:100AF000CA06CA1F802D03110310C31B0314B32D94
:100B00004308CA004608CB004208CB0203198E2DC9
:100B1000CA1FB32D0308013A8300B32D4708CB0049
:100B20004308CB0203199A2DCA1FB32D0308013ABB
:100B30008300B32D4808CB004408CB020319A62D2F
:100B4000CA1FB32D0308013A8300B32D4908CB0017
:100B50004508CB020319B22DCA1FB32D0308013A71
:100B60008300B32D03108A110A12A02E03081F3927
:100B70008300AD01AC01B101B001B301B201B50117
:100B8000B40183161F149F141F159F118313FF3088
:100B90008500F03086000030880087000910891039
:100BA000091103178301F0308100031381138312AD
:100BB0008B15C0308B040030F8001F08C73978044B
:100BC0009F001F179F1783169F1783121F14152A44
:100BD000340B1B2EB508031D1B2EAB3003178D00E5
:100BE00001308F0003139E22B43003178D000130B3
:100BF0008F0003100B300313C200F42A103084005E
:100C00003108C3003008C2004D2B0430C200AB01D4
:100C10008B1BAB178B13FA30DD006C20AB1B8B17D3
:100C2000C20B072EB508031D192E3408013C03180A
:100C30001B2EB501B401B408031DB42EB508031D65
:100C4000B42E320BB42EB308031DB42E0030F800BE
:100C50001F08C73978049F000630F700F70B2E2EC7
:100C600000001F151F19322E83161E088312B600AE
:100C70001E08B7003708C3003608C200B223893007
:100C8000D2002530D1001630D0007C30CF007A0859
:100C9000D6007908D5007808D4007708D300CF2390
:100CA0007A08BD007908BC007808BB007708BA0054
:100CB000AB018B1BAB178B130A30DD006C20AB1B19
:100CC0008B17BC3003178D0001308F0003139E2259
:100CD0000A30CF006C222030CF006C228930840093
:100CE0003D08C5003C08C4003B08C3003A08C200E8
:100CF0000230C600932C2030CF006C224330CF004E
:100D00006C22AB018B1BAB178B13C830DD006C2042
:100D1000AB1B8B173108C3003008C200B2237A081E
:100D2000C5007908C4007808C3007708C2003D08F0
:100D3000C9003C08C8003B08C7003A08C600752D2A
:100D4000031CAF2EB008031DA82EB1080319AF2E47
:100D5000FF30831603178200B22E8312031383160B
:100D600003178201831203133208043C031DC42EAF
:100D7000B308031DC42EB208031DC42EB308031DFF
:100D8000C42EB3010130B200B308031DCB2E3208CC
:100D9000043C0318CE2EB3010430B200E82D6300EA
:02400E00713F00
:00000001FF
;PIC16F877
;CRC=65DB  CREATED="15-dic-15 13:03"
